:100000000C944901189518951895189518951895F8
:100010001895189518951895189518951895189578
:100020001895189518951895189518951895189568
:100030001895189518951895189518951895189558
:10004000189518950C94DA00189518951895189528
:1000500018951895000142013C0160270110230109
:10006000102D01083C01082D01083C01081D010864
:10007000F10010F400081501083C01FBC4500FEF1B
:1000800007BB05E508BB01E20E948B0078940E9443
:10009000B30003C00E94950036D00091670001FDB7
:1000A00008C02DD011F000E401C000E605BF88951E
:1000B00001C0000024D089F70091670000FFEACF5B
:1000C00001FF19C012E00C2F0E94BD0000916700D3
:1000D00002FF02C0088104C00881003119F40981BF
:1000E00008BB0AC0003241F406B3088311E00C2FAC
:1000F0000E949C0001C0000002D079F6C8CF0E9487
:100100009200002308958A93802F08BB0E94B300B9
:10011000082F8991089502B904E006BF00E000931A
:10012000660008950091660008950091660000231E
:10013000E1F7009165000895AD0139D026812223B1
:10014000E9F7148320E008C0A02FA20FB0E03C9193
:10015000A0E6A20F3C9323952117B0F308D001E04D
:100160000683DA01089523D006810023E9F7F78397
:1001700008EF058305EC06BF089520916600222351
:10018000E1F715D0278120FF0FC020E007C0E22F44
:10019000E05A3081E02FE20F308323952117B8F326
:1001A000E0E607810D7F0783078101700895E0E68F
:1001B000F0E00895BA93AA938A93FA93EA933A9255
:1001C0002A921A920A927A936A935A934A933A938A
:1001D0002A931A930A938FB701B1E4E5F0E00C94E7
:1001E000640100E000936800E2DF0085A0E6A00F54
:1001F000B0E00C9103B900850395008705EC06BFBC
:1002000001E006838FBF0991199129913991499194
:100210005991699179910990199029903990E991B2
:10022000F9918991A991B9911895C1DF008514813F
:10023000011731F407810160078305EC6EDFE2CF1F
:1002400001B10583FACFB3DF078104600783AFDF15
:10025000078102600783F087D1CFE0E603B1F0E0C9
:100260001085A0E6A10FB0E00C93008503950087F0
:10027000078101600783C2CF01B10093650000E9E7
:1002800006BFC0CF01B100936500D7CF00008895AD
:10029000FECF08EA0DBF00E00EBFC9E8D0E00E9423
:1002A000A901002311F00E94B9010E943E000E94A2
:1002B00046010C94460175916591559145911590B3
:1002C00011FA259035900895F9DF041B10E003C062
:1002D000F4DF041B150B20E030E005C0ECDF041B4D
:1002E000150B260B370BB8F010FC17C04591059085
:1002F000E00FF11F0417100540E02407340758F4FD
:1003000036F404910024F101E01BF0090994E00F98
:10031000F11F25903590F101099411F4D6F7F1CF32
:1003200031960EF0319650E060E070E045914B3F21
:1003300048F089F34F3F29F04E3F11F075916591D8
:1003400055914591041B150B260B370B39F318F308
:10035000E7CF01E0089520E006D0E9F70895259160
:1003600002D0E9F708952D9301501040202F212B42
:10037000089586EA93E0FC0105911491FC01329600
:10038000A591B491FC01349625913491422F432BD1
:1003900019F0F901E4DF01C0DEDF069613E08C3AC4
:1003A000910748F3089509006000AC0300000000C5
:0503B00000F800000050
:00000001FF
:00000001FF
