S01100005457495F736C6176652E73726563A5
S11300000C942A000C9447000C9447000C9447006D
S11300100C9447000C9447000C9447000C94470040
S11300200C9447000C9447000C9447000C94470030
S11300300C9447000C9447000C9447000C94470020
S11300400C9447000C94F7000C9447000C94470060
S11300500C94470011241FBECFE5D4E0DEBFCDBF12
S113006010E0A0E6B0E0EAE2F3E002C005900D92F1
S1130070A236B107D9F720E0A2E6B0E001C01D9294
S1130080AA36B207E1F70E9449000C9493010C943C
S11300900000CF93DF9300D000D0CDB7DEB78FEF51
S11300A087BB85E588BB81E20E949D0078940E940D
S11300B0CB0000E610E48091630081FD09C00E943A
S11300C0A300882311F015BF01C005BF889501C0A6
S11300D000000E94A3008111EECF8091630080FF95
S11300E026C081FF1CC062E0CE0101960E94D900A7
S11300F08091630082FF03C0898188BB11C089811C
S1130100803111F48A8188BB8981803249F486B3B5
S1130110898361E0CE0101960E94AD0001C0000018
S11301200E94A3008111C7CF0E94CB00C4CF0E94BC
S1130130A60088BB0E94CB00BECF82B984E086BFF4
S11301401092640008958091640008958091640081
S11301508111FECF809160000895209164002111E7
S1130160FECF60936500662359F0282FA6E6B0E021
S1130170E82FF92F81918D938E2F821B8617D0F350
S11301801092630088EF8093600085EC86BF81E065
S1130190809364000895809164008111FECF1092D1
S11301A0630088EF8093600085EC86BF1092640042
S11301B00895209164002111FECF2091630020FF57
S11301C012C0662359F026E630E0A82FB92FF901B2
S11301D081918D938E2F821B8617D0F380916300BB
S11301E08D7F8093630080916300817008951F92D6
S11301F00F920FB60F9211248F939F93EF93FF9357
S113020081B1803909F45EC090F4803709F448C0A4
S113021038F4882309F471C0803609F446C073C0E9
S1130220803809F44FC0883809F467C06CC0883A34
S113023081F038F4883909F460C0803A09F458C070
S113024062C0803CC9F0883C09F457C0883B19F06F
S11302505AC010926200E091620081E08E0F809398
S11302606200F0E0EA59FF4F808183B985EC86BFD4
S113027081E0809364004EC090916200809165009B
S1130280981306C08091630081608093630003C06B
S113029081B18093600085EC86BF109264003AC0FF
S11302A08091630084608093630080916300826026
S11302B0809363001092620085EC86BF81E0809396
S11302C0640028C0E091620081E08E0F8093620098
S11302D083B1F0E0EA59FF4F80838091630081602D
S11302E08093630085EC86BF81E08093640012C034
S11302F085EC86BF109264000DC081B180936000CC
S113030080E986BF07C081B18093600085EC86BF19
S113031010926400FF91EF919F918F910F900FBE07
S10D03200F901F901895F894FFCF7A
S105032AF800D5
S9030000FC
