:1000000019C033C032C031C030C02FC02EC02DC087
:100010002CC02BC02AC029C028C027C026C025C09C
:1000200024C023C022C021C020C01FC01EC01DC0CC
:10003000C8C01BC011241FBECFEFD2E0DEBFCDBFB2
:1000400011E0A0E0B1E0E8E1F3E002C005900D921C
:10005000A230B107D9F721E0A2E0B1E001C01D92C2
:10006000AA30B207E1F702D055C1CACFCF93DF93D0
:1000700000D000D0CDB7DEB78FEF84B985E585B964
:1000800062E081E23ED078946FD005E011E080918B
:10009000030181FD08C03FD0882311F015BF01C0C6
:1000A00005BF889501C0000036D08111F0CF809146
:1000B000030180FF22C081FF1AC062E0CE010196D9
:1000C00062D08091030182FF03C0898185B910C08D
:1000D0008981803111F48A8185B98981803241F426
:1000E00083B18983612FCE0101961FD001C000002A
:1000F00012D08111CCCF38D0CACF10D085B934D02E
:10010000C6CF8093BA006093BD0084E08093BC00AA
:1001100010920401089580910401089580910401D2
:100120008111FECF809100010895209104012111D9
:10013000FECF60930501662359F0282FA6E0B1E0B9
:10014000E82FF92F81918D938E2F821B8617D0F384
:100150001092030188EF8093000185EC8093BC002E
:1001600081E0809304010895809104018111FECF04
:100170001092030188EF8093000185EC8093BC000E
:10018000109204010895209104012111FECF2091C5
:10019000030120FF12C0662359F026E031E0A82FAA
:1001A000B92FF90181918D938E2F821B8617D0F381
:1001B000809103018D7F8093030180910301817001
:1001C00008951F920F920FB60F9211248F939F9351
:1001D000EF93FF938091B900803909F463C090F4E4
:1001E000803709F44CC038F4882309F479C080368C
:1001F00009F44AC07DC0803809F454C0883809F435
:100200006FC076C0883A81F038F4883909F468C044
:10021000803A09F45FC06CC0803CD9F0883C09F496
:100220005FC0883B19F064C010920201E0910201A6
:1002300081E08E0F80930201F0E0EA5FFE4F808143
:100240008093BB0085EC8093BC0081E08093040127
:1002500058C09091020180910501981306C08091C9
:10026000030181608093030104C08091B9008093F1
:10027000000185EC8093BC001092040142C0809183
:100280000301846080930301809103018260809365
:1002900003011092020185EC8093BC0081E0809301
:1002A00004012FC0E091020181E08E0F80930201D2
:1002B0008091BB00F0E0EA5FFE4F808380910301F4
:1002C00081608093030185EC8093BC0081E0809382
:1002D000040117C085EC8093BC001092040111C08A
:1002E0008091B9008093000180E98093BC0009C02F
:1002F0008091B9008093000185EC8093BC0010923E
:100300000401FF91EF919F918F910F900FBE0F907D
:080310001F901895F894FFCF2F
:02031800F800EB
:00000001FF
